{
  "contractName": "ImgHash",
  "abi": [
    {
      "constant": true,
      "inputs": [],
      "name": "name",
      "outputs": [
        {
          "name": "",
          "type": "string"
        }
      ],
      "payable": false,
      "stateMutability": "view",
      "type": "function",
      "signature": "0x06fdde03"
    },
    {
      "constant": true,
      "inputs": [],
      "name": "searchTag",
      "outputs": [
        {
          "name": "",
          "type": "string"
        }
      ],
      "payable": false,
      "stateMutability": "view",
      "type": "function",
      "signature": "0x30301d24"
    },
    {
      "constant": true,
      "inputs": [],
      "name": "fileCount",
      "outputs": [
        {
          "name": "",
          "type": "uint256"
        }
      ],
      "payable": false,
      "stateMutability": "view",
      "type": "function",
      "signature": "0x43953519"
    },
    {
      "constant": true,
      "inputs": [],
      "name": "jwtToken",
      "outputs": [
        {
          "name": "",
          "type": "string"
        }
      ],
      "payable": false,
      "stateMutability": "view",
      "type": "function",
      "signature": "0x4e87ffa5"
    },
    {
      "constant": true,
      "inputs": [
        {
          "name": "",
          "type": "uint256"
        }
      ],
      "name": "files",
      "outputs": [
        {
          "name": "fileId",
          "type": "uint256"
        },
        {
          "name": "fileHash",
          "type": "string"
        },
        {
          "name": "fileSize",
          "type": "uint256"
        },
        {
          "name": "fileType",
          "type": "string"
        },
        {
          "name": "fileName",
          "type": "string"
        },
        {
          "name": "fileDescription",
          "type": "string"
        },
        {
          "name": "uploadTime",
          "type": "uint256"
        },
        {
          "name": "uploader",
          "type": "address"
        }
      ],
      "payable": false,
      "stateMutability": "view",
      "type": "function",
      "signature": "0xf4c714b4"
    },
    {
      "inputs": [],
      "payable": false,
      "stateMutability": "nonpayable",
      "type": "constructor",
      "signature": "constructor"
    },
    {
      "anonymous": false,
      "inputs": [
        {
          "indexed": false,
          "name": "fileId",
          "type": "uint256"
        },
        {
          "indexed": false,
          "name": "fileHash",
          "type": "string"
        },
        {
          "indexed": false,
          "name": "fileSize",
          "type": "uint256"
        },
        {
          "indexed": false,
          "name": "fileType",
          "type": "string"
        },
        {
          "indexed": false,
          "name": "fileName",
          "type": "string"
        },
        {
          "indexed": false,
          "name": "fileDescription",
          "type": "string"
        },
        {
          "indexed": false,
          "name": "uploadTime",
          "type": "uint256"
        },
        {
          "indexed": false,
          "name": "uploader",
          "type": "address"
        }
      ],
      "name": "FileUploaded",
      "type": "event",
      "signature": "0x6e95bbaa37a5fdec42a312e049dea2fe6160ebe659214d3409b4f91f164c2f52"
    },
    {
      "constant": false,
      "inputs": [
        {
          "name": "_fileHash",
          "type": "string"
        },
        {
          "name": "_fileSize",
          "type": "uint256"
        },
        {
          "name": "_fileType",
          "type": "string"
        },
        {
          "name": "_fileName",
          "type": "string"
        },
        {
          "name": "_fileDescription",
          "type": "string"
        }
      ],
      "name": "uploadImage",
      "outputs": [],
      "payable": false,
      "stateMutability": "nonpayable",
      "type": "function",
      "signature": "0xf4f33202"
    },
    {
      "constant": false,
      "inputs": [
        {
          "name": "keyword",
          "type": "string"
        }
      ],
      "name": "searchImage",
      "outputs": [],
      "payable": false,
      "stateMutability": "nonpayable",
      "type": "function",
      "signature": "0x7bea055a"
    },
    {
      "constant": false,
      "inputs": [
        {
          "name": "token",
          "type": "string"
        }
      ],
      "name": "verifyToken",
      "outputs": [],
      "payable": false,
      "stateMutability": "nonpayable",
      "type": "function",
      "signature": "0x00dea6d6"
    }
  ],
  "bytecode": "0x60806040526040805190810160405280600781526020017f496d6748617368000000000000000000000000000000000000000000000000008152506000908051906020019061004f929190610067565b50600060015534801561006157600080fd5b5061010c565b828054600181600116156101000203166002900490600052602060002090601f016020900481019282601f106100a857805160ff19168380011785556100d6565b828001600101855582156100d6579182015b828111156100d55782518255916020019190600101906100ba565b5b5090506100e391906100e7565b5090565b61010991905b808211156101055760008160009055506001016100ed565b5090565b90565b610f158061011b6000396000f3fe60806040526004361061008d576000357c0100000000000000000000000000000000000000000000000000000000900463ffffffff168062dea6d61461009257806306fdde03146100bb57806330301d24146100e657806343953519146101115780634e87ffa51461013c5780637bea055a14610167578063f4c714b414610190578063f4f33202146101d4575b600080fd5b34801561009e57600080fd5b506100b960048036036100b49190810190610a97565b6101fd565b005b3480156100c757600080fd5b506100d0610217565b6040516100dd9190610c62565b60405180910390f35b3480156100f257600080fd5b506100fb6102b5565b6040516101089190610c62565b60405180910390f35b34801561011d57600080fd5b50610126610353565b6040516101339190610c84565b60405180910390f35b34801561014857600080fd5b50610151610359565b60405161015e9190610c62565b60405180910390f35b34801561017357600080fd5b5061018e60048036036101899190810190610a97565b6103f7565b005b34801561019c57600080fd5b506101b760048036036101b29190810190610baf565b610411565b6040516101cb989796959493929190610d39565b60405180910390f35b3480156101e057600080fd5b506101fb60048036036101f69190810190610ad8565b6106d9565b005b8060039080519060200190610213929190610908565b5050565b60008054600181600116156101000203166002900480601f0160208091040260200160405190810160405280929190818152602001828054600181600116156101000203166002900480156102ad5780601f10610282576101008083540402835291602001916102ad565b820191906000526020600020905b81548152906001019060200180831161029057829003601f168201915b505050505081565b60028054600181600116156101000203166002900480601f01602080910402602001604051908101604052809291908181526020018280546001816001161561010002031660029004801561034b5780601f106103205761010080835404028352916020019161034b565b820191906000526020600020905b81548152906001019060200180831161032e57829003601f168201915b505050505081565b60015481565b60038054600181600116156101000203166002900480601f0160208091040260200160405190810160405280929190818152602001828054600181600116156101000203166002900480156103ef5780601f106103c4576101008083540402835291602001916103ef565b820191906000526020600020905b8154815290600101906020018083116103d257829003601f168201915b505050505081565b806002908051906020019061040d929190610908565b5050565b6004602052806000526040600020600091509050806000015490806001018054600181600116156101000203166002900480601f0160208091040260200160405190810160405280929190818152602001828054600181600116156101000203166002900480156104c35780601f10610498576101008083540402835291602001916104c3565b820191906000526020600020905b8154815290600101906020018083116104a657829003601f168201915b505050505090806002015490806003018054600181600116156101000203166002900480601f0160208091040260200160405190810160405280929190818152602001828054600181600116156101000203166002900480156105675780601f1061053c57610100808354040283529160200191610567565b820191906000526020600020905b81548152906001019060200180831161054a57829003601f168201915b505050505090806004018054600181600116156101000203166002900480601f0160208091040260200160405190810160405280929190818152602001828054600181600116156101000203166002900480156106055780601f106105da57610100808354040283529160200191610605565b820191906000526020600020905b8154815290600101906020018083116105e857829003601f168201915b505050505090806005018054600181600116156101000203166002900480601f0160208091040260200160405190810160405280929190818152602001828054600181600116156101000203166002900480156106a35780601f10610678576101008083540402835291602001916106a3565b820191906000526020600020905b81548152906001019060200180831161068657829003601f168201915b5050505050908060060154908060070160009054906101000a900473ffffffffffffffffffffffffffffffffffffffff16905088565b600085511115156106e957600080fd5b600083511115156106f957600080fd5b6000815111151561070957600080fd5b6000825111151561071957600080fd5b600073ffffffffffffffffffffffffffffffffffffffff163373ffffffffffffffffffffffffffffffffffffffff161415151561075557600080fd5b60008411151561076457600080fd5b6001600081548092919060010191905055506101006040519081016040528060015481526020018681526020018581526020018481526020018381526020018281526020014281526020013373ffffffffffffffffffffffffffffffffffffffff16815250600460006001548152602001908152602001600020600082015181600001556020820151816001019080519060200190610804929190610988565b5060408201518160020155606082015181600301908051906020019061082b929190610988565b506080820151816004019080519060200190610848929190610988565b5060a0820151816005019080519060200190610865929190610988565b5060c0820151816006015560e08201518160070160006101000a81548173ffffffffffffffffffffffffffffffffffffffff021916908373ffffffffffffffffffffffffffffffffffffffff1602179055509050507f6e95bbaa37a5fdec42a312e049dea2fe6160ebe659214d3409b4f91f164c2f52600154868686868642336040516108f9989796959493929190610c9f565b60405180910390a15050505050565b828054600181600116156101000203166002900490600052602060002090601f016020900481019282601f1061094957805160ff1916838001178555610977565b82800160010185558215610977579182015b8281111561097657825182559160200191906001019061095b565b5b5090506109849190610a08565b5090565b828054600181600116156101000203166002900490600052602060002090601f016020900481019282601f106109c957805160ff19168380011785556109f7565b828001600101855582156109f7579182015b828111156109f65782518255916020019190600101906109db565b5b509050610a049190610a08565b5090565b610a2a91905b80821115610a26576000816000905550600101610a0e565b5090565b90565b600082601f8301121515610a4057600080fd5b8135610a53610a4e82610e00565b610dd3565b91508082526020830160208301858383011115610a6f57600080fd5b610a7a838284610e88565b50505092915050565b6000610a8f8235610e7e565b905092915050565b600060208284031215610aa957600080fd5b600082013567ffffffffffffffff811115610ac357600080fd5b610acf84828501610a2d565b91505092915050565b600080600080600060a08688031215610af057600080fd5b600086013567ffffffffffffffff811115610b0a57600080fd5b610b1688828901610a2d565b9550506020610b2788828901610a83565b945050604086013567ffffffffffffffff811115610b4457600080fd5b610b5088828901610a2d565b935050606086013567ffffffffffffffff811115610b6d57600080fd5b610b7988828901610a2d565b925050608086013567ffffffffffffffff811115610b9657600080fd5b610ba288828901610a2d565b9150509295509295909350565b600060208284031215610bc157600080fd5b6000610bcf84828501610a83565b91505092915050565b610be181610e42565b82525050565b6000610bf282610e37565b808452610c06816020860160208601610e97565b610c0f81610eca565b602085010191505092915050565b6000610c2882610e2c565b808452610c3c816020860160208601610e97565b610c4581610eca565b602085010191505092915050565b610c5c81610e74565b82525050565b60006020820190508181036000830152610c7c8184610c1d565b905092915050565b6000602082019050610c996000830184610c53565b92915050565b600061010082019050610cb5600083018b610c53565b8181036020830152610cc7818a610be7565b9050610cd66040830189610c53565b8181036060830152610ce88188610be7565b90508181036080830152610cfc8187610be7565b905081810360a0830152610d108186610be7565b9050610d1f60c0830185610c53565b610d2c60e0830184610bd8565b9998505050505050505050565b600061010082019050610d4f600083018b610c53565b8181036020830152610d61818a610c1d565b9050610d706040830189610c53565b8181036060830152610d828188610c1d565b90508181036080830152610d968187610c1d565b905081810360a0830152610daa8186610c1d565b9050610db960c0830185610c53565b610dc660e0830184610bd8565b9998505050505050505050565b6000604051905081810181811067ffffffffffffffff82111715610df657600080fd5b8060405250919050565b600067ffffffffffffffff821115610e1757600080fd5b601f19601f8301169050602081019050919050565b600081519050919050565b600081519050919050565b6000610e4d82610e54565b9050919050565b600073ffffffffffffffffffffffffffffffffffffffff82169050919050565b6000819050919050565b6000819050919050565b82818337600083830152505050565b60005b83811015610eb5578082015181840152602081019050610e9a565b83811115610ec4576000848401525b50505050565b6000601f19601f830116905091905056fea265627a7a7230582098b0f1fce9009d22c68bec1e188bc59ae4a551c02897ceb21f953084534fa1166c6578706572696d656e74616cf50037",
  "source": "pragma solidity ^0.5.0;\r\npragma experimental ABIEncoderV2;\r\n\r\ncontract ImgHash {\r\n    //smart contract codes starts here...\r\n\r\n    string public name = \"ImgHash\";\r\n    uint public fileCount = 0;\r\n    string public searchTag;\r\n    string public jwtToken;\r\n    mapping(uint => File) public files;\r\n\r\n    struct File {\r\n        uint fileId;\r\n        string fileHash;\r\n        uint fileSize;\r\n        string fileType;\r\n        string fileName;\r\n        string fileDescription;\r\n        uint uploadTime;\r\n        address payable uploader;\r\n    }\r\n\r\n    event FileUploaded(\r\n        uint fileId,\r\n        string fileHash,\r\n        uint fileSize,\r\n        string fileType,\r\n        string fileName,\r\n        string fileDescription,\r\n        uint uploadTime,\r\n        address payable uploader\r\n    );\r\n\r\n    constructor() public {}\r\n\r\n    function uploadImage(\r\n        string memory _fileHash,\r\n        uint _fileSize,\r\n        string memory _fileType,\r\n        string memory _fileName,\r\n        string memory _fileDescription\r\n    ) public {\r\n        // Make sure the file hash exists\r\n        require(bytes(_fileHash).length > 0);\r\n        // Make sure file type exists\r\n        require(bytes(_fileType).length > 0);\r\n        // Make sure file description exists\r\n        require(bytes(_fileDescription).length > 0);\r\n        // Make sure file fileName exists\r\n        require(bytes(_fileName).length > 0);\r\n        // Make sure uploader address exists\r\n        require(msg.sender != address(0));\r\n        // Make sure file size is more than 0\r\n        require(_fileSize > 0);\r\n\r\n        // Increment file id\r\n        fileCount++;\r\n\r\n        // Add File to the contract\r\n        files[fileCount] = File(\r\n            fileCount,\r\n            _fileHash,\r\n            _fileSize,\r\n            _fileType,\r\n            _fileName,\r\n            _fileDescription,\r\n            now,\r\n            msg.sender\r\n        );\r\n        // Trigger an event\r\n        emit FileUploaded(\r\n            fileCount,\r\n            _fileHash,\r\n            _fileSize,\r\n            _fileType,\r\n            _fileName,\r\n            _fileDescription,\r\n            now,\r\n            msg.sender\r\n        );\r\n    }\r\n\r\n    function searchImage (string memory keyword) public {\r\n        searchTag = keyword;\r\n    }\r\n\r\n    function verifyToken (string memory token) public {\r\n        jwtToken = token;\r\n    }\r\n}\r\n",
  "sourcePath": "D:/XMUM/FYP-PixelSearch/src/contracts/ImgHash.sol",
  "compiler": {
    "name": "solc",
    "version": "0.5.0+commit.1d4f565a.Emscripten.clang"
  },
  "schemaVersion": "3.0.2",
  "updatedAt": "2022-06-29T08:46:58.896Z",
  "devdoc": {
    "methods": {}
  },
  "userdoc": {
    "methods": {}
  }
}