{
  "contractName": "ImgHash",
  "abi": [
    {
      "constant": true,
      "inputs": [],
      "name": "name",
      "outputs": [
        {
          "name": "",
          "type": "string"
        }
      ],
      "payable": false,
      "stateMutability": "view",
      "type": "function",
      "signature": "0x06fdde03"
    },
    {
      "constant": true,
      "inputs": [],
      "name": "searchTag",
      "outputs": [
        {
          "name": "",
          "type": "string"
        }
      ],
      "payable": false,
      "stateMutability": "view",
      "type": "function",
      "signature": "0x30301d24"
    },
    {
      "constant": true,
      "inputs": [],
      "name": "fileCount",
      "outputs": [
        {
          "name": "",
          "type": "uint256"
        }
      ],
      "payable": false,
      "stateMutability": "view",
      "type": "function",
      "signature": "0x43953519"
    },
    {
      "constant": true,
      "inputs": [
        {
          "name": "",
          "type": "uint256"
        }
      ],
      "name": "files",
      "outputs": [
        {
          "name": "fileId",
          "type": "uint256"
        },
        {
          "name": "fileHash",
          "type": "string"
        },
        {
          "name": "fileSize",
          "type": "uint256"
        },
        {
          "name": "fileType",
          "type": "string"
        },
        {
          "name": "fileName",
          "type": "string"
        },
        {
          "name": "fileDescription",
          "type": "string"
        },
        {
          "name": "uploadTime",
          "type": "uint256"
        },
        {
          "name": "uploader",
          "type": "address"
        }
      ],
      "payable": false,
      "stateMutability": "view",
      "type": "function",
      "signature": "0xf4c714b4"
    },
    {
      "inputs": [],
      "payable": false,
      "stateMutability": "nonpayable",
      "type": "constructor",
      "signature": "constructor"
    },
    {
      "anonymous": false,
      "inputs": [
        {
          "indexed": false,
          "name": "fileId",
          "type": "uint256"
        },
        {
          "indexed": false,
          "name": "fileHash",
          "type": "string"
        },
        {
          "indexed": false,
          "name": "fileSize",
          "type": "uint256"
        },
        {
          "indexed": false,
          "name": "fileType",
          "type": "string"
        },
        {
          "indexed": false,
          "name": "fileName",
          "type": "string"
        },
        {
          "indexed": false,
          "name": "fileDescription",
          "type": "string"
        },
        {
          "indexed": false,
          "name": "uploadTime",
          "type": "uint256"
        },
        {
          "indexed": false,
          "name": "uploader",
          "type": "address"
        }
      ],
      "name": "FileUploaded",
      "type": "event",
      "signature": "0x6e95bbaa37a5fdec42a312e049dea2fe6160ebe659214d3409b4f91f164c2f52"
    },
    {
      "constant": false,
      "inputs": [
        {
          "name": "_fileHash",
          "type": "string"
        },
        {
          "name": "_fileSize",
          "type": "uint256"
        },
        {
          "name": "_fileType",
          "type": "string"
        },
        {
          "name": "_fileName",
          "type": "string"
        },
        {
          "name": "_fileDescription",
          "type": "string"
        }
      ],
      "name": "uploadImage",
      "outputs": [],
      "payable": false,
      "stateMutability": "nonpayable",
      "type": "function",
      "signature": "0xf4f33202"
    },
    {
      "constant": false,
      "inputs": [
        {
          "name": "keyword",
          "type": "string"
        }
      ],
      "name": "searchImage",
      "outputs": [],
      "payable": false,
      "stateMutability": "nonpayable",
      "type": "function",
      "signature": "0x7bea055a"
    }
  ],
  "bytecode": "0x60806040526040805190810160405280600781526020017f496d6748617368000000000000000000000000000000000000000000000000008152506000908051906020019061004f929190610067565b50600060015534801561006157600080fd5b5061010c565b828054600181600116156101000203166002900490600052602060002090601f016020900481019282601f106100a857805160ff19168380011785556100d6565b828001600101855582156100d6579182015b828111156100d55782518255916020019190600101906100ba565b5b5090506100e391906100e7565b5090565b61010991905b808211156101055760008160009055506001016100ed565b5090565b90565b610df48061011b6000396000f3fe608060405260043610610078576000357c0100000000000000000000000000000000000000000000000000000000900463ffffffff16806306fdde031461007d57806330301d24146100a857806343953519146100d35780637bea055a146100fe578063f4c714b414610127578063f4f332021461016b575b600080fd5b34801561008957600080fd5b50610092610194565b60405161009f9190610b41565b60405180910390f35b3480156100b457600080fd5b506100bd610232565b6040516100ca9190610b41565b60405180910390f35b3480156100df57600080fd5b506100e86102d0565b6040516100f59190610b63565b60405180910390f35b34801561010a57600080fd5b5061012560048036036101209190810190610976565b6102d6565b005b34801561013357600080fd5b5061014e60048036036101499190810190610a8e565b6102f0565b604051610162989796959493929190610c18565b60405180910390f35b34801561017757600080fd5b50610192600480360361018d91908101906109b7565b6105b8565b005b60008054600181600116156101000203166002900480601f01602080910402602001604051908101604052809291908181526020018280546001816001161561010002031660029004801561022a5780601f106101ff5761010080835404028352916020019161022a565b820191906000526020600020905b81548152906001019060200180831161020d57829003601f168201915b505050505081565b60028054600181600116156101000203166002900480601f0160208091040260200160405190810160405280929190818152602001828054600181600116156101000203166002900480156102c85780601f1061029d576101008083540402835291602001916102c8565b820191906000526020600020905b8154815290600101906020018083116102ab57829003601f168201915b505050505081565b60015481565b80600290805190602001906102ec9291906107e7565b5050565b6003602052806000526040600020600091509050806000015490806001018054600181600116156101000203166002900480601f0160208091040260200160405190810160405280929190818152602001828054600181600116156101000203166002900480156103a25780601f10610377576101008083540402835291602001916103a2565b820191906000526020600020905b81548152906001019060200180831161038557829003601f168201915b505050505090806002015490806003018054600181600116156101000203166002900480601f0160208091040260200160405190810160405280929190818152602001828054600181600116156101000203166002900480156104465780601f1061041b57610100808354040283529160200191610446565b820191906000526020600020905b81548152906001019060200180831161042957829003601f168201915b505050505090806004018054600181600116156101000203166002900480601f0160208091040260200160405190810160405280929190818152602001828054600181600116156101000203166002900480156104e45780601f106104b9576101008083540402835291602001916104e4565b820191906000526020600020905b8154815290600101906020018083116104c757829003601f168201915b505050505090806005018054600181600116156101000203166002900480601f0160208091040260200160405190810160405280929190818152602001828054600181600116156101000203166002900480156105825780601f1061055757610100808354040283529160200191610582565b820191906000526020600020905b81548152906001019060200180831161056557829003601f168201915b5050505050908060060154908060070160009054906101000a900473ffffffffffffffffffffffffffffffffffffffff16905088565b600085511115156105c857600080fd5b600083511115156105d857600080fd5b600081511115156105e857600080fd5b600082511115156105f857600080fd5b600073ffffffffffffffffffffffffffffffffffffffff163373ffffffffffffffffffffffffffffffffffffffff161415151561063457600080fd5b60008411151561064357600080fd5b6001600081548092919060010191905055506101006040519081016040528060015481526020018681526020018581526020018481526020018381526020018281526020014281526020013373ffffffffffffffffffffffffffffffffffffffff168152506003600060015481526020019081526020016000206000820151816000015560208201518160010190805190602001906106e3929190610867565b5060408201518160020155606082015181600301908051906020019061070a929190610867565b506080820151816004019080519060200190610727929190610867565b5060a0820151816005019080519060200190610744929190610867565b5060c0820151816006015560e08201518160070160006101000a81548173ffffffffffffffffffffffffffffffffffffffff021916908373ffffffffffffffffffffffffffffffffffffffff1602179055509050507f6e95bbaa37a5fdec42a312e049dea2fe6160ebe659214d3409b4f91f164c2f52600154868686868642336040516107d8989796959493929190610b7e565b60405180910390a15050505050565b828054600181600116156101000203166002900490600052602060002090601f016020900481019282601f1061082857805160ff1916838001178555610856565b82800160010185558215610856579182015b8281111561085557825182559160200191906001019061083a565b5b50905061086391906108e7565b5090565b828054600181600116156101000203166002900490600052602060002090601f016020900481019282601f106108a857805160ff19168380011785556108d6565b828001600101855582156108d6579182015b828111156108d55782518255916020019190600101906108ba565b5b5090506108e391906108e7565b5090565b61090991905b808211156109055760008160009055506001016108ed565b5090565b90565b600082601f830112151561091f57600080fd5b813561093261092d82610cdf565b610cb2565b9150808252602083016020830185838301111561094e57600080fd5b610959838284610d67565b50505092915050565b600061096e8235610d5d565b905092915050565b60006020828403121561098857600080fd5b600082013567ffffffffffffffff8111156109a257600080fd5b6109ae8482850161090c565b91505092915050565b600080600080600060a086880312156109cf57600080fd5b600086013567ffffffffffffffff8111156109e957600080fd5b6109f58882890161090c565b9550506020610a0688828901610962565b945050604086013567ffffffffffffffff811115610a2357600080fd5b610a2f8882890161090c565b935050606086013567ffffffffffffffff811115610a4c57600080fd5b610a588882890161090c565b925050608086013567ffffffffffffffff811115610a7557600080fd5b610a818882890161090c565b9150509295509295909350565b600060208284031215610aa057600080fd5b6000610aae84828501610962565b91505092915050565b610ac081610d21565b82525050565b6000610ad182610d16565b808452610ae5816020860160208601610d76565b610aee81610da9565b602085010191505092915050565b6000610b0782610d0b565b808452610b1b816020860160208601610d76565b610b2481610da9565b602085010191505092915050565b610b3b81610d53565b82525050565b60006020820190508181036000830152610b5b8184610afc565b905092915050565b6000602082019050610b786000830184610b32565b92915050565b600061010082019050610b94600083018b610b32565b8181036020830152610ba6818a610ac6565b9050610bb56040830189610b32565b8181036060830152610bc78188610ac6565b90508181036080830152610bdb8187610ac6565b905081810360a0830152610bef8186610ac6565b9050610bfe60c0830185610b32565b610c0b60e0830184610ab7565b9998505050505050505050565b600061010082019050610c2e600083018b610b32565b8181036020830152610c40818a610afc565b9050610c4f6040830189610b32565b8181036060830152610c618188610afc565b90508181036080830152610c758187610afc565b905081810360a0830152610c898186610afc565b9050610c9860c0830185610b32565b610ca560e0830184610ab7565b9998505050505050505050565b6000604051905081810181811067ffffffffffffffff82111715610cd557600080fd5b8060405250919050565b600067ffffffffffffffff821115610cf657600080fd5b601f19601f8301169050602081019050919050565b600081519050919050565b600081519050919050565b6000610d2c82610d33565b9050919050565b600073ffffffffffffffffffffffffffffffffffffffff82169050919050565b6000819050919050565b6000819050919050565b82818337600083830152505050565b60005b83811015610d94578082015181840152602081019050610d79565b83811115610da3576000848401525b50505050565b6000601f19601f830116905091905056fea265627a7a723058204ef38c3c75a8cb44b6ee76af5ba74b7f6200408b26637f2f98bb16de8fc55c7d6c6578706572696d656e74616cf50037",
  "source": "pragma solidity ^0.5.0;\r\npragma experimental ABIEncoderV2;\r\n\r\ncontract ImgHash {\r\n    //smart contract codes starts here...\r\n\r\n    string public name = \"ImgHash\";\r\n    uint public fileCount = 0;\r\n    string public searchTag;\r\n    mapping(uint => File) public files;\r\n\r\n    struct File {\r\n        uint fileId;\r\n        string fileHash;\r\n        uint fileSize;\r\n        string fileType;\r\n        string fileName;\r\n        string fileDescription;\r\n        uint uploadTime;\r\n        address payable uploader;\r\n    }\r\n\r\n    event FileUploaded(\r\n        uint fileId,\r\n        string fileHash,\r\n        uint fileSize,\r\n        string fileType,\r\n        string fileName,\r\n        string fileDescription,\r\n        uint uploadTime,\r\n        address payable uploader\r\n    );\r\n\r\n    constructor() public {}\r\n\r\n    function uploadImage(\r\n        string memory _fileHash,\r\n        uint _fileSize,\r\n        string memory _fileType,\r\n        string memory _fileName,\r\n        string memory _fileDescription\r\n    ) public {\r\n        // Make sure the file hash exists\r\n        require(bytes(_fileHash).length > 0);\r\n        // Make sure file type exists\r\n        require(bytes(_fileType).length > 0);\r\n        // Make sure file description exists\r\n        require(bytes(_fileDescription).length > 0);\r\n        // Make sure file fileName exists\r\n        require(bytes(_fileName).length > 0);\r\n        // Make sure uploader address exists\r\n        require(msg.sender != address(0));\r\n        // Make sure file size is more than 0\r\n        require(_fileSize > 0);\r\n\r\n        // Increment file id\r\n        fileCount++;\r\n\r\n        // Add File to the contract\r\n        files[fileCount] = File(\r\n            fileCount,\r\n            _fileHash,\r\n            _fileSize,\r\n            _fileType,\r\n            _fileName,\r\n            _fileDescription,\r\n            now,\r\n            msg.sender\r\n        );\r\n        // Trigger an event\r\n        emit FileUploaded(\r\n            fileCount,\r\n            _fileHash,\r\n            _fileSize,\r\n            _fileType,\r\n            _fileName,\r\n            _fileDescription,\r\n            now,\r\n            msg.sender\r\n        );\r\n    }\r\n\r\n    function searchImage (string memory keyword) public {\r\n        searchTag = keyword;\r\n    }\r\n}\r\n",
  "sourcePath": "D:/ProjectFiles/FYP/FYP/src/contracts/ImgHash.sol",
  "compiler": {
    "name": "solc",
    "version": "0.5.0+commit.1d4f565a.Emscripten.clang"
  },
  "schemaVersion": "3.0.2",
  "updatedAt": "2022-06-08T15:34:42.912Z",
  "devdoc": {
    "methods": {}
  },
  "userdoc": {
    "methods": {}
  }
}