{
  "contractName": "ImgStorage",
  "abi": [
    {
      "constant": true,
      "inputs": [],
      "name": "name",
      "outputs": [
        {
          "name": "",
          "type": "string"
        }
      ],
      "payable": false,
      "stateMutability": "view",
      "type": "function"
    },
    {
      "constant": true,
      "inputs": [
        {
          "name": "",
          "type": "uint256"
        }
      ],
      "name": "images",
      "outputs": [
        {
          "name": "imgId",
          "type": "uint256"
        },
        {
          "name": "imgHash",
          "type": "string"
        },
        {
          "name": "imgSize",
          "type": "uint256"
        },
        {
          "name": "imgType",
          "type": "string"
        },
        {
          "name": "imgName",
          "type": "string"
        },
        {
          "name": "uploadTime",
          "type": "uint256"
        },
        {
          "name": "uploader",
          "type": "address"
        }
      ],
      "payable": false,
      "stateMutability": "view",
      "type": "function"
    },
    {
      "constant": true,
      "inputs": [],
      "name": "imgCount",
      "outputs": [
        {
          "name": "",
          "type": "uint256"
        }
      ],
      "payable": false,
      "stateMutability": "view",
      "type": "function"
    },
    {
      "inputs": [],
      "payable": false,
      "stateMutability": "nonpayable",
      "type": "constructor"
    },
    {
      "anonymous": false,
      "inputs": [
        {
          "indexed": false,
          "name": "imgId",
          "type": "uint256"
        },
        {
          "indexed": false,
          "name": "imgHash",
          "type": "string"
        },
        {
          "indexed": false,
          "name": "imgSize",
          "type": "uint256"
        },
        {
          "indexed": false,
          "name": "imgType",
          "type": "string"
        },
        {
          "indexed": false,
          "name": "imgName",
          "type": "string"
        },
        {
          "indexed": false,
          "name": "uploadTime",
          "type": "uint256"
        },
        {
          "indexed": false,
          "name": "uploader",
          "type": "address"
        }
      ],
      "name": "ImageUploaded",
      "type": "event"
    },
    {
      "constant": false,
      "inputs": [
        {
          "name": "_imgHash",
          "type": "string"
        },
        {
          "name": "_imgSize",
          "type": "uint256"
        },
        {
          "name": "_imgType",
          "type": "string"
        },
        {
          "name": "_imgName",
          "type": "string"
        }
      ],
      "name": "uploadImage",
      "outputs": [],
      "payable": false,
      "stateMutability": "nonpayable",
      "type": "function"
    }
  ],
  "bytecode": "0x60806040526040805190810160405280600a81526020017f496d6753746f72616765000000000000000000000000000000000000000000008152506000908051906020019061004f929190610067565b50600060015534801561006157600080fd5b5061010c565b828054600181600116156101000203166002900490600052602060002090601f016020900481019282601f106100a857805160ff19168380011785556100d6565b828001600101855582156100d6579182015b828111156100d55782518255916020019190600101906100ba565b5b5090506100e391906100e7565b5090565b61010991905b808211156101055760008160009055506001016100ed565b5090565b90565b610c0c8061011b6000396000f3fe608060405260043610610062576000357c0100000000000000000000000000000000000000000000000000000000900463ffffffff16806306fdde03146100675780635a79ab3c146100f757806384856482146102f7578063ed99bccc146104cb575b600080fd5b34801561007357600080fd5b5061007c6104f6565b6040518080602001828103825283818151815260200191508051906020019080838360005b838110156100bc5780820151818401526020810190506100a1565b50505050905090810190601f1680156100e95780820380516001836020036101000a031916815260200191505b509250505060405180910390f35b34801561010357600080fd5b506102f56004803603608081101561011a57600080fd5b810190808035906020019064010000000081111561013757600080fd5b82018360208201111561014957600080fd5b8035906020019184600183028401116401000000008311171561016b57600080fd5b91908080601f016020809104026020016040519081016040528093929190818152602001838380828437600081840152601f19601f82011690508083019250505050505050919291929080359060200190929190803590602001906401000000008111156101d857600080fd5b8201836020820111156101ea57600080fd5b8035906020019184600183028401116401000000008311171561020c57600080fd5b91908080601f016020809104026020016040519081016040528093929190818152602001838380828437600081840152601f19601f8201169050808301925050505050505091929192908035906020019064010000000081111561026f57600080fd5b82018360208201111561028157600080fd5b803590602001918460018302840111640100000000831117156102a357600080fd5b91908080601f016020809104026020016040519081016040528093929190818152602001838380828437600081840152601f19601f820116905080830192505050505050509192919290505050610594565b005b34801561030357600080fd5b506103306004803603602081101561031a57600080fd5b810190808035906020019092919050505061090b565b604051808881526020018060200187815260200180602001806020018681526020018573ffffffffffffffffffffffffffffffffffffffff1673ffffffffffffffffffffffffffffffffffffffff16815260200184810384528a818151815260200191508051906020019080838360005b838110156103bc5780820151818401526020810190506103a1565b50505050905090810190601f1680156103e95780820380516001836020036101000a031916815260200191505b50848103835288818151815260200191508051906020019080838360005b83811015610422578082015181840152602081019050610407565b50505050905090810190601f16801561044f5780820380516001836020036101000a031916815260200191505b50848103825287818151815260200191508051906020019080838360005b8381101561048857808201518184015260208101905061046d565b50505050905090810190601f1680156104b55780820380516001836020036101000a031916815260200191505b509a505050505050505050505060405180910390f35b3480156104d757600080fd5b506104e0610b35565b6040518082815260200191505060405180910390f35b60008054600181600116156101000203166002900480601f01602080910402602001604051908101604052809291908181526020018280546001816001161561010002031660029004801561058c5780601f106105615761010080835404028352916020019161058c565b820191906000526020600020905b81548152906001019060200180831161056f57829003601f168201915b505050505081565b600084511115156105a457600080fd5b600082511115156105b457600080fd5b600081511115156105c457600080fd5b600073ffffffffffffffffffffffffffffffffffffffff163373ffffffffffffffffffffffffffffffffffffffff161415151561060057600080fd5b60008311151561060f57600080fd5b60016000815480929190600101919050555060e06040519081016040528060015481526020018581526020018481526020018381526020018281526020014281526020013373ffffffffffffffffffffffffffffffffffffffff168152506002600060015481526020019081526020016000206000820151816000015560208201518160010190805190602001906106a8929190610b3b565b506040820151816002015560608201518160030190805190602001906106cf929190610b3b565b5060808201518160040190805190602001906106ec929190610b3b565b5060a0820151816005015560c08201518160060160006101000a81548173ffffffffffffffffffffffffffffffffffffffff021916908373ffffffffffffffffffffffffffffffffffffffff1602179055509050507fa4c9ba7a74d2bf6ed3db46d551e54e132fd4fd5323d4323940d02d081cc278c3600154858585854233604051808881526020018060200187815260200180602001806020018681526020018573ffffffffffffffffffffffffffffffffffffffff1673ffffffffffffffffffffffffffffffffffffffff16815260200184810384528a818151815260200191508051906020019080838360005b838110156107f75780820151818401526020810190506107dc565b50505050905090810190601f1680156108245780820380516001836020036101000a031916815260200191505b50848103835288818151815260200191508051906020019080838360005b8381101561085d578082015181840152602081019050610842565b50505050905090810190601f16801561088a5780820380516001836020036101000a031916815260200191505b50848103825287818151815260200191508051906020019080838360005b838110156108c35780820151818401526020810190506108a8565b50505050905090810190601f1680156108f05780820380516001836020036101000a031916815260200191505b509a505050505050505050505060405180910390a150505050565b6002602052806000526040600020600091509050806000015490806001018054600181600116156101000203166002900480601f0160208091040260200160405190810160405280929190818152602001828054600181600116156101000203166002900480156109bd5780601f10610992576101008083540402835291602001916109bd565b820191906000526020600020905b8154815290600101906020018083116109a057829003601f168201915b505050505090806002015490806003018054600181600116156101000203166002900480601f016020809104026020016040519081016040528092919081815260200182805460018160011615610100020316600290048015610a615780601f10610a3657610100808354040283529160200191610a61565b820191906000526020600020905b815481529060010190602001808311610a4457829003601f168201915b505050505090806004018054600181600116156101000203166002900480601f016020809104026020016040519081016040528092919081815260200182805460018160011615610100020316600290048015610aff5780601f10610ad457610100808354040283529160200191610aff565b820191906000526020600020905b815481529060010190602001808311610ae257829003601f168201915b5050505050908060050154908060060160009054906101000a900473ffffffffffffffffffffffffffffffffffffffff16905087565b60015481565b828054600181600116156101000203166002900490600052602060002090601f016020900481019282601f10610b7c57805160ff1916838001178555610baa565b82800160010185558215610baa579182015b82811115610ba9578251825591602001919060010190610b8e565b5b509050610bb79190610bbb565b5090565b610bdd91905b80821115610bd9576000816000905550600101610bc1565b5090565b9056fea165627a7a723058204090ec71da411c0e19dee797eba237561bdc4047a9f257012e5e478501e217af0029",
  "source": "pragma solidity ^0.5.0;\r\n\r\ncontract ImgStorage {\r\n    string public name = 'ImgStorage';\r\n    uint public imgCount = 0;\r\n    mapping(uint => Image) public images;\r\n\r\n    struct Image {\r\n        uint imgId;\r\n        string imgHash;\r\n        uint imgSize;\r\n        string imgType;\r\n        string imgName;\r\n        uint uploadTime;\r\n        address payable uploader;\r\n    }\r\n\r\n    event ImageUploaded(\r\n        uint imgId,\r\n        string imgHash,\r\n        uint imgSize,\r\n        string imgType,\r\n        string imgName,\r\n        uint uploadTime,\r\n        address payable uploader \r\n    );\r\n\r\n    constructor() public {\r\n        \r\n    }\r\n\r\n    function uploadImage (string memory _imgHash, uint _imgSize, string memory _imgType, string memory _imgName) public {\r\n        //make sure the image hash exists\r\n        require(bytes(_imgHash).length > 0);\r\n        //make sure file type exists\r\n        require(bytes(_imgType).length > 0);\r\n        //make sure file name exists\r\n        require(bytes(_imgName).length > 0);\r\n        //make sure uploader address exists\r\n        require(msg.sender!=address(0));\r\n        //make sure file size is more than 0\r\n        require(_imgSize>0);\r\n\r\n        //Increment the image ID\r\n        imgCount ++;\r\n\r\n        //Add image to the contract\r\n        images[imgCount] = Image(imgCount, _imgHash, _imgSize, _imgType, _imgName, now, msg.sender);\r\n        //trigger an event\r\n        emit ImageUploaded(imgCount, _imgHash, _imgSize, _imgType, _imgName, now, msg.sender);\r\n    }\r\n}",
  "sourcePath": "D:/ProjectFiles/FYP/FYP/src/contracts/ImgStorage.sol",
  "compiler": {
    "name": "solc",
    "version": "0.5.0+commit.1d4f565a.Emscripten.clang"
  },
  "schemaVersion": "3.0.2",
  "updatedAt": "2022-06-04T18:44:25.280Z",
  "devdoc": {
    "methods": {}
  },
  "userdoc": {
    "methods": {}
  }
}